:1000000073EF05F0FF0E0101B96F300EB85DE90F17
:1000100044E2170F000151EF00F00101B96B3DD030
:10002000010E0101B96F39D0020E0101B96F35D04F
:10003000030E0101B96F31D0040E0101B96F2DD04B
:10004000050E0101B96F29D0060E0101B96F25D047
:10005000070E0101B96F21D0080E0101B96F1DD043
:10006000090E0101B96F19D00A0E0101B96F15D03F
:100070000B0E0101B96F11D00C0E0101B96F0DD03B
:100080000D0E0101B96F09D00E0E0101B96F05D037
:100090000F0E0101B96F01D00101B9C101F00001DA
:1000A000000CE824F76AF736BD0FF66E000EF72253
:1000B0000A00F550FA6E0800F550F96E1A0020009B
:1000C0002800300038004000480050005800600010
:1000D0009800980098009800980098009800680090
:1000E0007000780080008800900027C22DF226C2A0
:1000F0002CF229C22FF228C22EF202012F512D5DBF
:1001000038E303E12C512E5D34E22A512E25016E95
:100110002B512F21036E2D51035C2BE303E1015082
:100120002C5D27E22A512C272B512D232A512E27D3
:100130002B512F232B5303E12A51000819E22C5194
:10014000D8B42D072C072E51D8B42F072E072EC256
:10015000E9FF2FC2EAFFEFCF32F22DC2EAFF2CC235
:10016000E9FF32C2EFFF2A51D8B42B072A07E2D7A2
:1001700024D02B5303E12A5100081FE22DC203F0C3
:100180002C512C2BD8B42D2B306F03C031F22FC241
:1001900003F02E512E2BD8B42F2BE96E03C0EAFFAB
:1001A000EFCF32F231C2EAFF30C2E9FF32C2EFFFD5
:1001B0002A51D8B42B072A07DCD726C201F027C260
:1001C00002F00001000C02011CC2E9FF1DC2EAFF9F
:1001D000ECCF03F0ED52EFCF20F203C021F221C2A9
:1001E00027F220C226F21FC229F21EC228F22B6B70
:1001F0000A0E2A6F000179DF0A0E02012027000E85
:1002000021231CC2E9FF1DC2EAFF21C2ECFFED520F
:1002100020C2EFFF000100EF02F002011CC2E9FF63
:100220001DC2EAFFECCF03F0ED52EFCF22F203C084
:1002300023F2256B246B2551215D1EE303E1205140
:10024000245D1AE223C227F222C226F21FC229F23B
:100250001EC228F22B6B010E2A6F000146DF02C07E
:1002600023F201C022F2010E02012227000E2323F5
:10027000242BD8B4252BDFD71CC2E9FF1DC2EAFF0F
:1002800023C2ECFFED5222C2EFFF0001000C25C299
:1002900029F224C228F2010E0201245D2A6F000E09
:1002A00025592B6F2F6B010E2E6F2651006E05E026
:1002B000D8902E372F37002EFBD7010E2E5D2C6FD6
:1002C0002851E96E29C2EAFFEFCF2EF2080ED8803E
:1002D0002655006E000E2755036E0050016E2EC28B
:1002E0002DF2015204E0D8902D33012EFCD72BC201
:1002F00003F003C02FF22AC2E9FF2BC2EAFFEFCFBF
:1003000030F22C51FF0A30172D512C1530112FC20D
:10031000EAFF2AC2E9FFEF6E29C203F028C2E9FF13
:1003200029C2EAFFEF50036A026E2651006E05E013
:10033000D89002360336002EFBD70250EF6E000134
:10034000DAEF01F002011CC2E9FF1DC2EAFFECCFA7
:1003500003F0ED52EFCF22F203C023F222C2E9FFF5
:1003600023C2EAFFEF6A010E2227000E2323216B2E
:10037000206B215328E12051090825E320511E2537
:10038000246F21511F21256F23C227F222C226F29A
:10039000296F24C228F22B6B010E2A6F0001A5DE03
:1003A00023C225F222C224F20201276B030E266F1C
:1003B00000016DD7010E02012227000E2323202BFE
:1003C000D8B4212BD6D71CC2E9FF1DC2EAFF23C235
:1003D000ECFFED5222C2EFFF000119EF02F0020123
:1003E000196B0A0E186F1A6B070E1B6F020E1D6F2A
:1003F000180E1C6F15C21FF214C21EF20001E3D6C4
:10040000020E02011D6F180E1C6F020E1F6F1A0ED6
:100410001E6F216B010E206F0001FFDE020E020134
:100420001D6F180E1C6F17C21FF216C21EF20001BC
:1004300089D7020E02011D6F180E1C6F020E1F6F6E
:100440001A0E1E6F216B0D0E206F0001E6DE020EEC
:1004500002011D6F180E1C6F020E1F6F1B0E1E6F08
:10046000216B010E206F0001D8DE0A0E016E000E16
:10047000026E000C02012EC2E9FF2FC2EAFFEFCF8D
:1004800034F2070ED8803055006E000E3155036EE1
:1004900000C001F034C233F2015204E0D89033338B
:1004A000012EFCD73351010B016E000176EF02F0F3
:1004B00002012731296F2631286F29332833293348
:1004C00028331F0E29172651070B2A6F2B6B285133
:1004D00024252C6F295125212D6F2F6F2CC22EF230
:1004E0002BC231F22AC230F20001C4D70150000CF5
:1004F000070ED88002013355006E000E3455036E8E
:100500000050036A010E026E005205E0D8900236D8
:100510000336002EFBD702C035F231C2E9FF32C2EA
:10052000EAFFEFCF36F2070ED8803355006E000E8B
:100530003455036E00C001F0015204E0D890363704
:10054000012EFCD72FC2E9FF30C2EAFFEFCF39F20C
:100550003551FF0A391736513515391130C2EAFFC6
:100560002FC2E9FFEF6E0001000C020128312A6F53
:100570002731296F2A3329332A3329331F0E2A17AB
:100580002751070B2B6F2C6B295123252D6F2A51D7
:1005900024212E6F306F2DC22FF226C232F225C2D7
:1005A00031F22CC234F22BC233F20001A1DF000C75
:1005B00026C22AF225C229F2010E0201255D2B6F07
:1005C000000E26592C6F080ED8802755006E000E9D
:1005D0002855036E0050036AFF0E026E005205E0BC
:1005E000D89002360336002EFBD702C02DF22BC264
:1005F000E9FF2CC2EAFFEFCF2FF2080ED880275573
:10060000006E000E2855036E00C001F02FC22EF2BE
:10061000015204E0D8902E37012EFCD72AC203F0F5
:1006200029512F6F03C030F229C2E9FF2AC2EAFF25
:10063000EFCF31F22D51FF0A31172E512D15311107
:1006400030C2EAFF2FC2E9FFEF6E2CC203F02BC2CB
:10065000E9FF2CC2EAFFEF50036A026E2751006ED9
:1006600005E0D89003320232002EFBD70250EF6E25
:10067000000129EF04F00201206B1BC225F21AC20F
:1006800024F2276B410E266F000112DF01C023F216
:100690001BC225F21AC224F20201276B5C0E266FE0
:1006A000000106DF0201235101181C6F1BC225F255
:1006B0001AC224F2276BA10E266F0001F9DE01C0D9
:1006C00023F21BC225F21AC224F20201276BB00EDC
:1006D000266F0001EDDE0201235101181D6F1BC2C0
:1006E00025F21AC224F2276BF20E266F0001E0DE1B
:1006F00001C023F21BC225F21AC224F2010E02012C
:10070000276F1F0E266F0001D3DE0201235101184F
:100710001E6F1C511D191E191F6F1BC225F21AC214
:1007200024F2276B5A0E266F0001C2DE01C023F2AD
:100730001BC225F21AC224F20201276B5B0E266F40
:100740000001B6DE0201235101141C19236F1BC2E4
:1007500025F21AC224F2276BAA0E266F0001A8DE2A
:100760000201235101181C6F1BC225F21AC224F288
:10077000276BAE0E266F00019BDE01C023F21BC269
:1007800025F21AC224F20201276BAF0E266F000178
:100790008FDE0201235101141D19236F1BC225F2A4
:1007A0001AC224F2010E276F070E266F000180DEA9
:1007B0000201235101181D6F1BC225F21AC224F237
:1007C000010E276F1D0E266F000172DE01C023F29D
:1007D0001BC225F21AC224F2010E0201276F1E0E5F
:1007E000266F000165DE0201235101141E19236FDB
:1007F0001BC225F21AC224F2276B440E266F000199
:1008000057DE0201235101181E6F1BC224F21AC2C7
:1008100023F2020E266F200E256F010E286F1F0E89
:10082000276F0001A2DE0201226B240E216F2153EB
:1008300002E1225314E021511A25236F22511B217A
:10084000246F266F23C225F2286B010E276F00014B
:10085000AFD602012151D8B422072107E8D71BC225
:1008600024F21AC223F2020E266F1E0E256F286B89
:10087000276B00017ADE1BC224F21AC223F2020E99
:100880000201266F1C0E256F286B5D0E276F00017D
:100890006CDE1BC224F21AC223F2020E0201266F82
:1008A0001D0E256F286BB10E276F00015EDE020161
:1008B0001FC201F00001000C93908A800201196BA5
:1008C000080E186F185302E1195323E015C21BF2EA
:1008D00014C21AF20001CFDE01C017F2010E0201AC
:1008E000185D1A6F000E19591B6F020E306F160E2D
:1008F0002F6F020E326F170E316F1BC234F21AC205
:1009000033F20001F5DD02011851D8B419071807B8
:10091000D9D793908A9016C201F00001D0EF04F06D
:10092000CCC1CEF1CBC1CDF1010EEA6ED10EE96E94
:10093000CAC1E2FFC9C1E1FF400E016EE6CFEEFF82
:10094000012EFCD7C6C115F2C5C114F2C8C117F2F9
:10095000C7C116F244DD02C012F201C011F201015A
:10096000D06BCF6BD05104080FE303E1CF517F0868
:100970000BE312C21BF211C21AF200017CDE01016C
:10098000CF2BD8B4D02BEED793908A80CD5302E1F1
:10099000CE5321E012C215F211C214F200018CD71D
:1009A00001C013F20101CD51CB5D0201146F0101B1
:1009B000CE51CC590201156FD10E1425E96E010EEE
:1009C0001521EA6EEF501319EF6E0101CD51D8B425
:1009D000CE07CD07DBD793908A90CAC1EAFFC9C181
:1009E000E9FF010EE26ED10EE16E400E016EE6CF20
:1009F000EEFF012EFCD700011FEF05F00201276B6F
:100A00002E0E266FC2C129F2C1C128F2C4C12BF239
:100A1000C3C12AF2000175EC00F0BEC1C6F1BDC130
:100A2000C5F1C0C1C8F1BFC1C7F10101CA6B2E0E2B
:100A3000C96FC4C1CCF1C3C1CBF1000171D72E0E77
:100A4000016E000E026E36EF05F0B6C1BEF1B5C103
:100A5000BDF1B8C1C0F1B7C1BFF1BAC1C2F1B9C1EE
:100A6000C1F1BCC1C4F1BBC1C3F1C8D702501CEF76
:100A700007F00101B7BF10D00F0E006EB639001697
:100A80000A0E005C03E2300E002602D0B7510026A9
:100A900000509EA8FED7AD6E0F0EB6170A0EB65DBB
:100AA00002E2300E02D0B79FB751B627B6519EA8CA
:100AB000FED7AD6E000143EF07F0010EEA6EB50EF2
:100AC000E96EEF500EE00F0E016E006A002EFED7A9
:100AD000012EFBD78F0E006E002EFED70000EF2EEA
:100AE000F2D74AEF07F0F86AD09EEA6AE96AB88658
:100AF000E10EAF6E040EB06EA60EAC6E900EAB6E35
:100B0000C150C00B0F09C16E070EB46E046A056AAE
:100B1000300E0101026F036F046F056F066F076FE0
:100B2000086F096F0A6F0B6F0C6F0D6F0E6F0F6FF1
:100B3000106F116F126F136F146F156F166F176FA1
:100B4000186F196F1A6F1B6F1C6F1D6F1E6F1F6F51
:100B5000206F216F226F236F246F256F266F276F01
:100B6000286F296F2A6F2B6F2C6F2D6F2E6F2F6FB1
:100B7000306F316F326F336F346F356F366F376F61
:100B8000386F396F3A6F3B6F3C6F3D6F3E6F3F6F11
:100B9000406F416F426F436F446F456F466F476FC1
:100BA000486F496F4A6F4B6F4C6F4D6F4E6F4F6F71
:100BB000506F516F526F536F546F556F566F576F21
:100BC000586F596F5A6F5B6F5C6F5D6F5E6F5F6FD1
:100BD000606F616F626F636F646F656F666F676F81
:100BE000686F696F6A6F6B6F6C6F6D6F6E6F6F6F31
:100BF000706F716F726F736F746F756F766F776FE1
:100C0000786F796F7A6F7B6F7C6F7D6F7E6F7F6F90
:100C1000806F816F200E826F010EB36FB46BB26B69
:100C2000B2513F0836E3D890B235036A020FE96E3D
:100C3000010E0320EA6EEFCFB0F1D890B235010F6C
:100C4000036A020FE96E010E0320EA6EEFCFB1F1E5
:100C5000036AB2516E0F016E000E032201C0B5F19E
:100C600003C0B6F1B1C1B8F1000102EC00F001C05F
:100C7000B7F1B0C1B8F102EC00F00150100DF35023
:100C80000101B725B6C1EAFFB5C1E9FFEF6EB22B8E
:100C9000C7D7B26BB25127081EE3036AB251830F64
:100CA000E96E010E0320EA6E9EAAFED7AECFEFFFDB
:100CB000036AB251830FE96E010E0320EA6EEF5012
:100CC000790807E19EAA05D09EAAFED7AECFB4F15F
:100CD000F9D7B22BDFD7036AB251830FE96E010E49
:100CE0000320EA6EEF6AB26BB251090838E3D8907C
:100CF000B235036A830FE96E010E0320EA6EEFCF6F
:100D0000B0F1D890B235010F036A830FE96E010E7E
:100D10000320EA6EEFCFB1F1090ED880B255036A15
:100D2000EE0F016E000E032201C0B5F103C0B6F153
:100D3000B1C1B8F1000102EC00F001C0B7F1B0C1DF
:100D4000B8F102EC00F00150100DF3500101B7258D
:100D5000B6C1EAFFB5C1E9FFEF6EB22BC5D7B26BE2
:100D6000B25109083AE3D890B235140F036A830FE1
:100D7000E96E010E0320EA6EEFCFB0F1D890B235E4
:100D8000140F010F036A830FE96E010E0320EA6E50
:100D9000EFCFB1F1090ED880B255036AF80F016E9A
:100DA000000E032201C0B5F103C0B6F1B1C1B8F124
:100DB000000102EC00F001C0B7F1B0C1B8F102ECE3
:100DC00000F00150100DF3500101B725B6C1EAFF44
:100DD000B5C1E9FFEF6EB22BC3D70201156BEE0E62
:100DE000146F176BF80E166F0001EFEC01F09EAA5E
:100DF00014D09EAAFED7AECFB4F10101B4517A0847
:100E000002E12ED008D09EAA05D09EAAFED7AECF72
:100E1000B4F1F9D725D021D000010101B66BEE0E57
:100E2000B56FB86BF80EB76FBA6B6E0EB96FBC6B5F
:100E3000400EBB6F000109D602C0B6F101C0B5F18A
:100E4000EA6AAE0EE96E02C0E2FF01C0E1FF400EA9
:100E5000016EE6CFEEFF012EFCD70001C8D70101DD
:100E6000B26BB2513F0812E3036AB251AE0FE96EA2
:100E7000000E0320EA6EEFCFB5F1B5C1B6F1370E23
:100E8000B76F0001F6D50101B22BEBD7050EB56F98
:0A0E9000000113D60101FDD6030096
:020000040030CA
:0E00000021CE181E000781000FC00FE00F4038
:00000001FF
;PIC18F2550
;CRC=A7D8  CREATED="01-Oct-18 11:14"
