:10000000E7EF04F0D9C0DFF0D8C0DEF0DBC0E1F0EC
:10001000DAC0E0F0E151DF5D38E303E1DE51E05D9D
:1000200034E2DC51E025016EDD51E121036EDF5148
:10003000035C2BE303E10150DE5D27E2DC51DE27A8
:10004000DD51DF23DC51E027DD51E123DD5303E106
:10005000DC51000819E2DE51D8B4DF07DE07E051B9
:10006000D8B4E107E007E0C0E9FFE1C0EAFFEFCF65
:10007000E4F0DFC0EAFFDEC0E9FFE4C0EFFFDC51DF
:10008000D8B4DD07DC07E2D724D0DD5303E1DC512F
:1000900000081FE2DFC003F0DE51DE2BD8B4DF2BF7
:1000A000E26F03C0E3F0E1C003F0E051E02BD8B40D
:1000B000E12BE96E03C0EAFFEFCFE4F0E3C0EAFF13
:1000C000E2C0E9FFE4C0EFFFDC51D8B4DD07DC0794
:1000D000DCD7D8C001F0D9C002F0000CCEC0E9FFD7
:1000E000CFC0EAFFECCF03F0ED52EFCFD2F003C068
:1000F000D3F0D3C0D9F0D2C0D8F0D1C0DBF0D0C09B
:10010000DAF0DD6B0A0EDC6F7DDF0A0ED227000EFF
:10011000D323CEC0E9FFCFC0EAFFD3C0ECFFED523E
:10012000D2C0EFFF78EF01F0CEC0E9FFCFC0EAFF09
:10013000ECCF03F0ED52EFCFD4F003C0D5F0D76B86
:10014000D66BD751D35D1CE303E1D251D65D18E2E3
:10015000D5C0D9F0D4C0D8F0D1C0DBF0D0C0DAF02F
:10016000DD6B010EDC6F4EDF02C0D5F001C0D4F0B4
:10017000010ED427000ED523D62BD8B4D72BE1D728
:10018000CEC0E9FFCFC0EAFFD5C0ECFFED52D4C02E
:10019000EFFF000CD7C0DBF0D6C0DAF0010ED65D61
:1001A000DC6F000ED759DD6FE16B010EE06FD851A7
:1001B000006E05E0D890E037E137002EFBD7010E46
:1001C000E05DDE6FDA51E96EDBC0EAFFEFCFE0F011
:1001D000080ED880D855006E000ED955036E005019
:1001E000016EE0C0DFF0015204E0D890DF33012E51
:1001F000FCD7DDC003F003C0E1F0DCC0E9FFDDC0E7
:10020000EAFFEFCFE2F0DE51FF0AE217DF51DE1521
:10021000E211E1C0EAFFDCC0E9FFEF6EDBC003F0F2
:10022000DAC0E9FFDBC0EAFFEF50036A026ED85183
:10023000006E05E0D89002360336002EFBD7025040
:10024000EF6E57EF01F0CEC0E9FFCFC0EAFFECCF71
:1002500003F0ED52EFCFD4F003C0D5F0D4C0E9FFE6
:10026000D5C0EAFFEF6A010ED427000ED523D36B69
:10027000D26BD35324E1D251090821E3D251D025C6
:10028000D66FD351D121D76FD5C0D9F0D4C0D8F013
:10029000DB6FD6C0DAF0DD6B010EDC6FB3DED5C0EC
:1002A000D7F0D4C0D6F0D96B030ED86F73D7010E38
:1002B000D427000ED523D22BD8B4D32BDAD7CEC077
:1002C000E9FFCFC0EAFFD5C0ECFFED52D4C0EFFF8D
:1002D0008AEF01F0CB6B0A0ECA6FCC6B070ECD6FA5
:1002E000CF6BCA0ECE6FC7C0D1F0C6C0D0F0F6D665
:1002F000CF6BCA0ECE6FD16BCC0ED06FD36B010E0D
:10030000D26F12DFCF6BCA0ECE6FC9C0D1F0C8C09A
:10031000D0F099D7CF6BCA0ECE6FD16BCC0ED06F09
:10032000D36B0D0ED26F00DFCF6BCA0ECE6FD16BC9
:10033000CD0ED06FD36B010ED26FF6DE0A0E016EBA
:10034000000E026E000CFF0E9B6F300E9A5DE90FDF
:1003500032E2170FDEEF01F09B6B2DD0010E9B6F89
:100360002AD0020E9B6F27D0030E9B6F24D0040E61
:100370009B6F21D0050E9B6F1ED0060E9B6F1BD06E
:10038000070E9B6F18D0080E9B6F15D0090E9B6F40
:1003900012D00A0E9B6F0FD00B0E9B6F0CD00C0E61
:1003A0009B6F09D00D0E9B6F06D00E0E9B6F03D076
:1003B0000F0E9B6F00D09BC001F0000CE824F76A81
:1003C000F736D70FF66E030EF7220A00F550FA6ED5
:1003D0000800F550F96E58035C03620368036E036E
:1003E00074037A03800386038C03B603B603B60353
:1003F000B603B603B603B603920398039E03A403A1
:10040000AA03B00399BF10D00F0E006E98390016E2
:100410000A0E005C03E2300E002602D0995100263D
:1004200000509EA8FED7AD6E0F0E98170A0E985D6D
:1004300002E2300E02D0999F9951982798519EA8B8
:10044000FED7AD6E000CE0C0E9FFE1C0EAFFEFCFE0
:10045000E6F0070ED880E255006E000EE355036EFD
:1004600000C001F0E6C0E5F0015204E0D890E533A9
:10047000012EFCD7E551010B016E5BEF02F0D93183
:10048000DB6FD831DA6FDB33DA33DB33DA331F0E6D
:10049000DB17D851070BDC6FDD6BDA51D625DE6F29
:1004A000DB51D721DF6FE16FDEC0E0F0DDC0E3F0AC
:1004B000DCC0E2F0C8D70150000C070ED880E5552B
:1004C000006E000EE655036E0050036A010E026EC8
:1004D000005205E0D89002360336002EFBD702C04A
:1004E000E7F0E3C0E9FFE4C0EAFFEFCFE8F0070E72
:1004F000D880E555006E000EE655036E00C001F091
:10050000015204E0D890E837012EFCD7E1C0E9FFA2
:10051000E2C0EAFFEFCFEBF0E751FF0AEB17E8513B
:10052000E715EB11E2C0EAFFE1C0E9FFEF6E000C56
:10053000DA31DC6FD931DB6FDC33DB33DC33DB33D7
:100540001F0EDC17D951070BDD6FDE6BDB51D52594
:10055000DF6FDC51D621E06FE26FDFC0E1F0D8C081
:10056000E4F0D7C0E3F0DEC0E6F0DDC0E5F0A5DFE3
:10057000000CD8C0DCF0D7C0DBF0010ED75DDD6F1A
:10058000000ED859DE6F080ED880D955006E000EC7
:10059000DA55036E0050036AFF0E026E005205E04A
:1005A000D89002360336002EFBD702C0DFF0DDC044
:1005B000E9FFDEC0EAFFEFCFE1F0080ED880D955A1
:1005C000006E000EDA55036E00C001F0E1C0E0F0ED
:1005D000015204E0D890E037012EFCD7DCC003F0D4
:1005E000DB51E16F03C0E2F0DBC0E9FFDCC0EAFFF2
:1005F000EFCFE3F0DF51FF0AE317E051DF15E3111E
:10060000E2C0EAFFE1C0E9FFEF6EDEC003F0DDC04B
:10061000E9FFDEC0EAFFEF50036A026ED951006EB7
:1006200005E0D89003320232002EFBD70250EF6E65
:10063000E5EF03F0D26BCDC0D7F0CCC0D6F0D96BCC
:10064000410ED86F1CDF01C0D5F0CDC0D7F0CCC0B3
:10065000D6F0D96B5C0ED86F12DFD5510118CE6F72
:10066000CDC0D7F0CCC0D6F0D96BA10ED86F07DFC4
:1006700001C0D5F0CDC0D7F0CCC0D6F0D96BB00E4C
:10068000D86FFDDED5510118CF6FCDC0D7F0CCC0EB
:10069000D6F0D96BF20ED86FF2DE01C0D5F0CDC026
:1006A000D7F0CCC0D6F0010ED96F1F0ED86FE7DEA1
:1006B000D5510118D06FCE51CF19D019D16FCDC0FF
:1006C000D7F0CCC0D6F0D96B5A0ED86FD8DE01C0A7
:1006D000D5F0CDC0D7F0CCC0D6F0D96B5B0ED86FBB
:1006E000CEDED5510114CE19D56FCDC0D7F0CCC018
:1006F000D6F0D96BAA0ED86FC2DED5510118CE6FD5
:10070000CDC0D7F0CCC0D6F0D96BAE0ED86FB7DE67
:1007100001C0D5F0CDC0D7F0CCC0D6F0D96BAF0EAC
:10072000D86FADDED5510114CF19D56FCDC0D7F03C
:10073000CCC0D6F0010ED96F070ED86FA0DED55110
:100740000118CF6FCDC0D7F0CCC0D6F0010ED96F55
:100750001D0ED86F94DE01C0D5F0CDC0D7F0CCC04F
:10076000D6F0010ED96F1E0ED86F89DED551011457
:10077000D019D56FCDC0D7F0CCC0D6F0D96B440E10
:10078000D86F7DDED5510118D06FCDC0D6F0CCC06A
:10079000D5F0D86BD20ED76F010EDA6F1F0ED96F5E
:1007A000C7DED46B240ED36FD35302E1D45312E0CF
:1007B000D351CC25D56FD451CD21D66FD86FD5C0AC
:1007C000D7F0DA6B010ED96FD4D6D351D8B4D40791
:1007D000D307EAD7CDC0D6F0CCC0D5F0D86BD00EB9
:1007E000D76FDA6BD96BA4DECDC0D6F0CCC0D5F014
:1007F000D86BCE0ED76FDA6B5D0ED96F99DECDC098
:10080000D6F0CCC0D5F0D86BCF0ED76FDA6BB10E67
:10081000D96F8EDED1C001F0000C93908A80CB6B33
:10082000080ECA6FCA5302E1CB531DE0C7C0CDF01A
:10083000C6C0CCF0FFDE01C0C9F0010ECA5DCC6FAE
:10084000000ECB59CD6FE26BC80EE16FE46BC90EA1
:10085000E36FCDC0E6F0CCC0E5F02FDECA51D8B4CE
:10086000CB07CA07DFD793908A90C8C001F074EF16
:1008700004F0AEC0B0F0ADC0AFF0EA6AB30EE96EFE
:10088000ACC0E2FFABC0E1FF100E016EE6CFEEFFA1
:10089000012EFCD7A8C0C7F0A7C0C6F0AAC0C9F0F7
:1008A000A9C0C8F017DD02C0C4F001C0C3F0B26B2C
:1008B000B16BB25104080DE303E1B1517F0809E3C4
:1008C000C4C0CDF0C3C0CCF0B5DEB12BD8B4B22BD0
:1008D000F0D793908A80AF5302E1B0531BE0C4C0BD
:1008E000C7F0C3C0C6F099D701C0C5F0AF51AD5D28
:1008F000C66FB051AE59C76FB30EC625E96E000E74
:10090000C721EA6EEF50C519EF6EAF51D8B4B007EA
:10091000AF07E1D793908A90ACC0EAFFABC0E9FF84
:10092000E26AB30EE16E100E016EE6CFEEFF012E0D
:10093000FCD7B8EF04F0D96B2E0ED86FA4C0DBF053
:10094000A3C0DAF0A6C0DDF0A5C0DCF002EC00F038
:10095000A0C0A8F09FC0A7F0A2C0AAF0A1C0A9F0B3
:10096000AC6B2E0EAB6FA6C0AEF0A5C0ADF081D7BC
:100970002E0E016E000E026ECFEF04F098C0A0F0B4
:1009800097C09FF09AC0A2F099C0A1F09CC0A4F0BB
:100990009BC0A3F09EC0A6F09DC0A5F0CCD702508E
:1009A000AEEF05F0EA6A970EE96EEF500EE00F0E1B
:1009B000016E006A002EFED7012EFBD78F0E006E4F
:1009C000002EFED70000EF2EF2D7D7EF05F0F86A21
:1009D000D09EEA6AE96AB886E10EAF6E040EB06E88
:1009E000A60EAC6E900EAB6EC150C00B0F09C16E5F
:1009F000070EB46E046A056A5E6A5F6A606B616BBB
:100A0000626B636B646B656B666B800E676F686BA4
:100A1000696B6A6B6B6B6C6B6D6B6E6B6F6B706B1A
:100A2000716B966BC76B5E0EC66FC96B680EC86F35
:100A300051DC956B95511F081EE3036A9551720FA7
:100A4000E96E000E0320EA6E9EAAFED7AECFEFFF3E
:100A5000036A9551720FE96E000E0320EA6EEF50A3
:100A6000790807E19EAA05D09EAAFED7AECF96F0E0
:100A7000F9D7952BDFD7036A9551720FE96E000EF7
:100A80000320EA6EEF6A956B95510F0832E3D89018
:100A90009535036A720FE96E000E0320EA6EEFCF00
:100AA00093F0D8909535010F036A720FE96E000E2E
:100AB0000320EA6EEFCF94F0036A95513E0F016E6A
:100AC000000E032201C097F003C098F094C09AF082
:100AD0003ADC01C099F093C09AF035DC0150100D5A
:100AE000F350992598C0EAFF97C0E9FFEF6E952B68
:100AF000CBD7956B95510F0810E3036A95513E0FC4
:100B0000E96E000E0320EA6EEFCF97F097C098F0E1
:100B1000370E996F77DC952BEDD79EAA12D09EAA3F
:100B2000FED7AECF96F096517A0802E129D008D0D0
:100B30009EAA05D09EAAFED7AECF96F0F9D720D0B8
:100B40001ED0986B5E0E976F9A6B680E996F9C6BB8
:100B50003E0E9B6F9E6B100E9D6F10D702C098F0DB
:100B600001C097F0EA6A4E0EE96E02C0E2FF01C0D2
:100B7000E1FF100E016EE6CFEEFF012EFCD7CDD7C0
:100B8000956B95510F0810E3036A95514E0FE96E6E
:100B9000000E0320EA6EEFCF97F097C098F0370E63
:100BA000996F30DC952BEDD7050E976FFBD641D7AB
:020BB000030040
:020000040030CA
:0E00000021CE181E000781000FC00FE00F4038
:00000001FF
;PIC18F2550
;CRC=F77A  CREATED="31-Aug-18 14:32"
